{
  "contractName": "ERC20",
  "abi": [
    {
      "inputs": [
        {
          "internalType": "string",
          "name": "_name",
          "type": "string"
        },
        {
          "internalType": "string",
          "name": "_symbol",
          "type": "string"
        },
        {
          "internalType": "uint8",
          "name": "_decimals",
          "type": "uint8"
        },
        {
          "internalType": "uint256",
          "name": "_totalSupply",
          "type": "uint256"
        }
      ],
      "stateMutability": "nonpayable",
      "type": "constructor"
    },
    {
      "anonymous": false,
      "inputs": [
        {
          "indexed": true,
          "internalType": "address",
          "name": "owner",
          "type": "address"
        },
        {
          "indexed": true,
          "internalType": "address",
          "name": "spender",
          "type": "address"
        },
        {
          "indexed": false,
          "internalType": "uint256",
          "name": "value",
          "type": "uint256"
        }
      ],
      "name": "Approval",
      "type": "event"
    },
    {
      "anonymous": false,
      "inputs": [
        {
          "indexed": false,
          "internalType": "address",
          "name": "oldOwner",
          "type": "address"
        },
        {
          "indexed": false,
          "internalType": "address",
          "name": "newOwner",
          "type": "address"
        }
      ],
      "name": "NewOwner",
      "type": "event"
    },
    {
      "anonymous": false,
      "inputs": [
        {
          "indexed": false,
          "internalType": "address",
          "name": "account",
          "type": "address"
        }
      ],
      "name": "Paused",
      "type": "event"
    },
    {
      "anonymous": false,
      "inputs": [
        {
          "indexed": true,
          "internalType": "address",
          "name": "from",
          "type": "address"
        },
        {
          "indexed": true,
          "internalType": "address",
          "name": "to",
          "type": "address"
        },
        {
          "indexed": false,
          "internalType": "uint256",
          "name": "value",
          "type": "uint256"
        }
      ],
      "name": "Transfer",
      "type": "event"
    },
    {
      "anonymous": false,
      "inputs": [
        {
          "indexed": false,
          "internalType": "address",
          "name": "account",
          "type": "address"
        }
      ],
      "name": "Unpaused",
      "type": "event"
    },
    {
      "inputs": [],
      "name": "decimals",
      "outputs": [
        {
          "internalType": "uint8",
          "name": "",
          "type": "uint8"
        }
      ],
      "stateMutability": "view",
      "type": "function"
    },
    {
      "inputs": [],
      "name": "isOwner",
      "outputs": [
        {
          "internalType": "bool",
          "name": "",
          "type": "bool"
        }
      ],
      "stateMutability": "view",
      "type": "function"
    },
    {
      "inputs": [],
      "name": "name",
      "outputs": [
        {
          "internalType": "string",
          "name": "",
          "type": "string"
        }
      ],
      "stateMutability": "view",
      "type": "function"
    },
    {
      "inputs": [],
      "name": "owner",
      "outputs": [
        {
          "internalType": "address",
          "name": "",
          "type": "address"
        }
      ],
      "stateMutability": "view",
      "type": "function"
    },
    {
      "inputs": [],
      "name": "pause",
      "outputs": [],
      "stateMutability": "nonpayable",
      "type": "function"
    },
    {
      "inputs": [],
      "name": "paused",
      "outputs": [
        {
          "internalType": "bool",
          "name": "",
          "type": "bool"
        }
      ],
      "stateMutability": "view",
      "type": "function"
    },
    {
      "inputs": [],
      "name": "symbol",
      "outputs": [
        {
          "internalType": "string",
          "name": "",
          "type": "string"
        }
      ],
      "stateMutability": "view",
      "type": "function"
    },
    {
      "inputs": [],
      "name": "totalSupply",
      "outputs": [
        {
          "internalType": "uint256",
          "name": "",
          "type": "uint256"
        }
      ],
      "stateMutability": "view",
      "type": "function"
    },
    {
      "inputs": [
        {
          "internalType": "address",
          "name": "_newOwner",
          "type": "address"
        }
      ],
      "name": "transferOwnership",
      "outputs": [],
      "stateMutability": "nonpayable",
      "type": "function"
    },
    {
      "inputs": [],
      "name": "unpause",
      "outputs": [],
      "stateMutability": "nonpayable",
      "type": "function"
    },
    {
      "inputs": [
        {
          "internalType": "address",
          "name": "_to",
          "type": "address"
        },
        {
          "internalType": "uint256",
          "name": "_value",
          "type": "uint256"
        }
      ],
      "name": "transfer",
      "outputs": [
        {
          "internalType": "bool",
          "name": "",
          "type": "bool"
        }
      ],
      "stateMutability": "nonpayable",
      "type": "function"
    },
    {
      "inputs": [
        {
          "internalType": "address",
          "name": "_owner",
          "type": "address"
        }
      ],
      "name": "balanceOf",
      "outputs": [
        {
          "internalType": "uint256",
          "name": "balance",
          "type": "uint256"
        }
      ],
      "stateMutability": "view",
      "type": "function"
    },
    {
      "inputs": [
        {
          "internalType": "address",
          "name": "_spender",
          "type": "address"
        },
        {
          "internalType": "uint256",
          "name": "_value",
          "type": "uint256"
        }
      ],
      "name": "approve",
      "outputs": [
        {
          "internalType": "bool",
          "name": "",
          "type": "bool"
        }
      ],
      "stateMutability": "nonpayable",
      "type": "function"
    },
    {
      "inputs": [
        {
          "internalType": "address",
          "name": "_from",
          "type": "address"
        },
        {
          "internalType": "address",
          "name": "_to",
          "type": "address"
        },
        {
          "internalType": "uint256",
          "name": "_value",
          "type": "uint256"
        }
      ],
      "name": "transferFrom",
      "outputs": [
        {
          "internalType": "bool",
          "name": "",
          "type": "bool"
        }
      ],
      "stateMutability": "nonpayable",
      "type": "function"
    },
    {
      "inputs": [
        {
          "internalType": "address",
          "name": "_owner",
          "type": "address"
        },
        {
          "internalType": "address",
          "name": "_spender",
          "type": "address"
        }
      ],
      "name": "allowance",
      "outputs": [
        {
          "internalType": "uint256",
          "name": "",
          "type": "uint256"
        }
      ],
      "stateMutability": "view",
      "type": "function"
    },
    {
      "inputs": [
        {
          "internalType": "address",
          "name": "_spender",
          "type": "address"
        },
        {
          "internalType": "uint256",
          "name": "_addedValue",
          "type": "uint256"
        }
      ],
      "name": "increaseApproval",
      "outputs": [
        {
          "internalType": "bool",
          "name": "",
          "type": "bool"
        }
      ],
      "stateMutability": "nonpayable",
      "type": "function"
    },
    {
      "inputs": [
        {
          "internalType": "address",
          "name": "_spender",
          "type": "address"
        },
        {
          "internalType": "uint256",
          "name": "_subtractedValue",
          "type": "uint256"
        }
      ],
      "name": "decreaseApproval",
      "outputs": [
        {
          "internalType": "bool",
          "name": "",
          "type": "bool"
        }
      ],
      "stateMutability": "nonpayable",
      "type": "function"
    },
    {
      "inputs": [
        {
          "internalType": "address",
          "name": "_to",
          "type": "address"
        },
        {
          "internalType": "uint256",
          "name": "_amount",
          "type": "uint256"
        }
      ],
      "name": "mintTo",
      "outputs": [
        {
          "internalType": "bool",
          "name": "",
          "type": "bool"
        }
      ],
      "stateMutability": "nonpayable",
      "type": "function"
    },
    {
      "inputs": [
        {
          "internalType": "uint256",
          "name": "_amount",
          "type": "uint256"
        }
      ],
      "name": "burn",
      "outputs": [
        {
          "internalType": "bool",
          "name": "",
          "type": "bool"
        }
      ],
      "stateMutability": "nonpayable",
      "type": "function"
    },
    {
      "inputs": [
        {
          "internalType": "address",
          "name": "_from",
          "type": "address"
        },
        {
          "internalType": "uint256",
          "name": "_amount",
          "type": "uint256"
        }
      ],
      "name": "burnFrom",
      "outputs": [
        {
          "internalType": "bool",
          "name": "",
          "type": "bool"
        }
      ],
      "stateMutability": "nonpayable",
      "type": "function"
    }
  ],
  "bytecode": "0x60806040523480156200001157600080fd5b50604051620014b8380380620014b88339810160408190526200003491620001f6565b600080546001600160a01b0319163317905582516200005b906002906020860190620000a5565b50835162000071906001906020870190620000a5565b506003805460ff191660ff939093169290921790915560048190553360009081526005602052604090205550620002d09050565b828054620000b3906200027d565b90600052602060002090601f016020900481019282620000d7576000855562000122565b82601f10620000f257805160ff191683800117855562000122565b8280016001018555821562000122579182015b828111156200012257825182559160200191906001019062000105565b506200013092915062000134565b5090565b5b8082111562000130576000815560010162000135565b600082601f8301126200015c578081fd5b81516001600160401b0380821115620001795762000179620002ba565b6040516020601f8401601f1916820181018381118382101715620001a157620001a1620002ba565b6040528382528584018101871015620001b8578485fd5b8492505b83831015620001db5785830181015182840182015291820191620001bc565b83831115620001ec57848185840101525b5095945050505050565b600080600080608085870312156200020c578384fd5b84516001600160401b038082111562000223578586fd5b62000231888389016200014b565b9550602087015191508082111562000247578485fd5b5062000256878288016200014b565b935050604085015160ff811681146200026d578283fd5b6060959095015193969295505050565b6002810460018216806200029257607f821691505b60208210811415620002b457634e487b7160e01b600052602260045260246000fd5b50919050565b634e487b7160e01b600052604160045260246000fd5b6111d880620002e06000396000f3fe608060405234801561001057600080fd5b506004361061012c5760003560e01c806370a08231116100ad57806395d89b411161007157806395d89b4114610242578063a9059cbb1461024a578063d73dd6231461025d578063dd62ed3e14610270578063f2fde38b146102835761012c565b806370a08231146101f757806379cc67901461020a5780638456cb591461021d5780638da5cb5b146102255780638f32d59b1461023a5761012c565b80633f4ba83a116100f45780633f4ba83a146101ac57806342966c68146101b6578063449a52f8146101c95780635c975abb146101dc57806366188463146101e45761012c565b806306fdde0314610131578063095ea7b31461014f57806318160ddd1461016f57806323b872dd14610184578063313ce56714610197575b600080fd5b610139610296565b6040516101469190610ee0565b60405180910390f35b61016261015d366004610e66565b610324565b6040516101469190610ed5565b6101776103c3565b60405161014691906110eb565b610162610192366004610e2b565b6103c9565b61019f6105ac565b60405161014691906110f4565b6101b46105b5565b005b6101626101c4366004610e8f565b610649565b6101626101d7366004610e66565b610713565b610162610802565b6101626101f2366004610e66565b610812565b610177610205366004610dd8565b610918565b610162610218366004610e66565b610933565b6101b4610a79565b61022d610b0a565b6040516101469190610ea7565b610162610b19565b610139610b2a565b610162610258366004610e66565b610b37565b61016261026b366004610e66565b610c3c565b61017761027e366004610df9565b610cee565b6101b4610291366004610dd8565b610d45565b600180546102a390611131565b80601f01602080910402602001604051908101604052809291908181526020018280546102cf90611131565b801561031c5780601f106102f15761010080835404028352916020019161031c565b820191906000526020600020905b8154815290600101906020018083116102ff57829003601f168201915b505050505081565b60008054600160a01b900460ff16156103585760405162461bcd60e51b815260040161034f90611004565b60405180910390fd5b3360008181526006602090815260408083206001600160a01b03881680855292529182902085905590519091907f8c5be1e5ebec7d5bd14f71427d1e84f3dd0314c0f7b2291e5b200ac8c7c3b925906103b29086906110eb565b60405180910390a350600192915050565b60045481565b60008054600160a01b900460ff16156103f45760405162461bcd60e51b815260040161034f90611004565b6001600160a01b03841661041a5760405162461bcd60e51b815260040161034f90610f61565b6001600160a01b0383166104405760405162461bcd60e51b815260040161034f90610fcd565b6001600160a01b0384166000908152600560205260409020548211156104785760405162461bcd60e51b815260040161034f90610f96565b6001600160a01b03841660009081526006602090815260408083203384529091529020548211156104bb5760405162461bcd60e51b815260040161034f9061102e565b6001600160a01b0384166000908152600560205260409020546104df90839061111a565b6001600160a01b03808616600090815260056020526040808220939093559085168152205461050f908390611102565b6001600160a01b03808516600090815260056020908152604080832094909455918716815260068252828120338252909152205461054e90839061111a565b6001600160a01b0380861660008181526006602090815260408083203384529091529081902093909355915190851691906000805160206111838339815191529061059a9086906110eb565b60405180910390a35060019392505050565b60035460ff1681565b6105bd610b19565b6105d95760405162461bcd60e51b815260040161034f906110b6565b600054600160a01b900460ff166106025760405162461bcd60e51b815260040161034f90610f33565b6000805460ff60a01b191690556040517f5db9ee0a495bf2e6ff9c91a7834c1ba4fdd244a5e8aa4e537bd38aeae4b073aa9061063f903390610ea7565b60405180910390a1565b60008054600160a01b900460ff16156106745760405162461bcd60e51b815260040161034f90611004565b336000908152600560205260409020548211156106a35760405162461bcd60e51b815260040161034f90610f96565b336000908152600560205260409020546106be90839061111a565b336000908152600560205260409020556004546106dc90839061111a565b6004556040516000903390600080516020611183833981519152906107029086906110eb565b60405180910390a35060015b919050565b60008054600160a01b900460ff161561073e5760405162461bcd60e51b815260040161034f90611004565b610746610b19565b6107625760405162461bcd60e51b815260040161034f906110b6565b6001600160a01b0383166107885760405162461bcd60e51b815260040161034f90610fcd565b6001600160a01b0383166000908152600560205260409020546107ac908390611102565b6001600160a01b0384166000908152600560205260409020556004546107d3908390611102565b6004556040516001600160a01b03841690600090600080516020611183833981519152906103b29086906110eb565b600054600160a01b900460ff1690565b60008054600160a01b900460ff161561083d5760405162461bcd60e51b815260040161034f90611004565b3360009081526006602090815260408083206001600160a01b038716845290915290205480831115610892573360009081526006602090815260408083206001600160a01b03881684529091528120556108c1565b61089c838261111a565b3360009081526006602090815260408083206001600160a01b03891684529091529020555b3360008181526006602090815260408083206001600160a01b0389168085529252918290205491519092917f8c5be1e5ebec7d5bd14f71427d1e84f3dd0314c0f7b2291e5b200ac8c7c3b9259161059a91906110eb565b6001600160a01b031660009081526005602052604090205490565b60008054600160a01b900460ff161561095e5760405162461bcd60e51b815260040161034f90611004565b6001600160a01b0383166109845760405162461bcd60e51b815260040161034f90610f61565b6001600160a01b0383166000908152600560205260409020548211156109bc5760405162461bcd60e51b815260040161034f90610f96565b6001600160a01b03831660009081526006602090815260408083203384529091529020548211156109ff5760405162461bcd60e51b815260040161034f90611074565b6001600160a01b038316600090815260056020526040902054610a2390839061111a565b6001600160a01b038416600090815260056020526040902055600454610a4a90839061111a565b6004556040516000906001600160a01b03851690600080516020611183833981519152906103b29086906110eb565b610a81610b19565b610a9d5760405162461bcd60e51b815260040161034f906110b6565b600054600160a01b900460ff1615610ac75760405162461bcd60e51b815260040161034f90611004565b6000805460ff60a01b1916600160a01b1790556040517f62e78cea01bee320cd4e420270b5ea74000d11b0c9f74754ebdbfc544b05a2589061063f903390610ea7565b6000546001600160a01b031690565b6000546001600160a01b0316331490565b600280546102a390611131565b60008054600160a01b900460ff1615610b625760405162461bcd60e51b815260040161034f90611004565b6001600160a01b038316610b885760405162461bcd60e51b815260040161034f90610fcd565b33600090815260056020526040902054821115610bb75760405162461bcd60e51b815260040161034f90610f96565b33600090815260056020526040902054610bd290839061111a565b33600090815260056020526040808220929092556001600160a01b03851681522054610bff908390611102565b6001600160a01b038416600081815260056020526040908190209290925590513390600080516020611183833981519152906103b29086906110eb565b60008054600160a01b900460ff1615610c675760405162461bcd60e51b815260040161034f90611004565b3360009081526006602090815260408083206001600160a01b0387168452909152902054610c96908390611102565b3360008181526006602090815260408083206001600160a01b038916808552925291829020849055905190927f8c5be1e5ebec7d5bd14f71427d1e84f3dd0314c0f7b2291e5b200ac8c7c3b925916103b291906110eb565b60008054600160a01b900460ff1615610d195760405162461bcd60e51b815260040161034f90611004565b506001600160a01b03918216600090815260066020908152604080832093909416825291909152205490565b610d4d610b19565b610d695760405162461bcd60e51b815260040161034f906110b6565b600080546001600160a01b0319166001600160a01b0383161790556040517f70aea8d848e8a90fb7661b227dc522eb6395c3dac71b63cb59edd5c9899b236490610db69033908490610ebb565b60405180910390a150565b80356001600160a01b038116811461070e57600080fd5b600060208284031215610de9578081fd5b610df282610dc1565b9392505050565b60008060408385031215610e0b578081fd5b610e1483610dc1565b9150610e2260208401610dc1565b90509250929050565b600080600060608486031215610e3f578081fd5b610e4884610dc1565b9250610e5660208501610dc1565b9150604084013590509250925092565b60008060408385031215610e78578182fd5b610e8183610dc1565b946020939093013593505050565b600060208284031215610ea0578081fd5b5035919050565b6001600160a01b0391909116815260200190565b6001600160a01b0392831681529116602082015260400190565b901515815260200190565b6000602080835283518082850152825b81811015610f0c57858101830151858201604001528201610ef0565b81811115610f1d5783604083870101525b50601f01601f1916929092016040019392505050565b60208082526014908201527314185d5cd8589b194e881b9bdd081c185d5cd95960621b604082015260600190565b6020808252818101527f45524332303a2066726f6d2061646472657373206973206e6f742076616c6964604082015260600190565b6020808252601b908201527f45524332303a20696e73756666696369656e742062616c616e63650000000000604082015260600190565b6020808252601e908201527f45524332303a20746f2061646472657373206973206e6f742076616c69640000604082015260600190565b60208082526010908201526f14185d5cd8589b194e881c185d5cd95960821b604082015260600190565b60208082526026908201527f45524332303a207472616e736665722066726f6d2076616c7565206e6f7420616040820152651b1b1bddd95960d21b606082015260800190565b60208082526022908201527f45524332303a206275726e2066726f6d2076616c7565206e6f7420616c6c6f77604082015261195960f21b606082015260800190565b6020808252818101527f4f776e61626c653a2063616c6c6572206973206e6f7420746865206f776e6572604082015260600190565b90815260200190565b60ff91909116815260200190565b600082198211156111155761111561116c565b500190565b60008282101561112c5761112c61116c565b500390565b60028104600182168061114557607f821691505b6020821081141561116657634e487b7160e01b600052602260045260246000fd5b50919050565b634e487b7160e01b600052601160045260246000fdfeddf252ad1be2c89b69c2b068fc378daa952ba7f163c4a11628f55a4df523b3efa2646970667358221220989fb78143d86d4a3f7940f83825d8e95350a93fdd293811d0aad01adfe47f8f64736f6c63430008000033",
  "immutableReferences": {},
  "source": "//SPDX-License-Identifier: UNLICENSED\n\npragma solidity ^0.8.0;\n\nimport './interfaces/IERC20.sol';\nimport \"./ownership/Ownable.sol\";\nimport \"./lifecycle/Pausable.sol\";\n\ncontract ERC20 is IERC20, Ownable, Pausable {\n\n    string public name;\n    string public symbol;\n    uint8 public decimals;\n    uint256 public totalSupply;\n\n    mapping (address => uint256) internal _balances;\n    mapping (address => mapping (address => uint256)) internal _allowed;\n\n    event Transfer(address indexed from, address indexed to, uint256 value);\n    event Approval(address indexed owner, address indexed spender, uint256 value);\n\n    constructor (\n        string memory _name, \n        string memory _symbol, \n        uint8 _decimals, \n        uint256 _totalSupply\n    ) {\n        symbol = _symbol;\n        name = _name;\n        decimals = _decimals;\n        totalSupply = _totalSupply;\n        _balances[msg.sender] = _totalSupply;\n    }\n\n    function transfer(\n        address _to, \n        uint256 _value\n    ) public override whenNotPaused returns (bool) {\n        require(_to != address(0), 'ERC20: to address is not valid');\n        require(_value <= _balances[msg.sender], 'ERC20: insufficient balance');\n\n        _balances[msg.sender] = _balances[msg.sender] - _value;\n        _balances[_to] = _balances[_to] + _value;\n        \n        emit Transfer(msg.sender, _to, _value);\n        \n        return true;\n    }\n\n   function balanceOf(\n       address _owner\n    ) public override view returns (uint256 balance) {\n        return _balances[_owner];\n    }\n\n    function approve(\n       address _spender, \n       uint256 _value\n    ) public override whenNotPaused returns (bool) {\n        _allowed[msg.sender][_spender] = _value;\n        \n        emit Approval(msg.sender, _spender, _value);\n        \n        return true;\n   }\n\n   function transferFrom(\n        address _from, \n        address _to, \n        uint256 _value\n    ) public override whenNotPaused returns (bool) {\n        require(_from != address(0), 'ERC20: from address is not valid');\n        require(_to != address(0), 'ERC20: to address is not valid');\n        require(_value <= _balances[_from], 'ERC20: insufficient balance');\n        require(_value <= _allowed[_from][msg.sender], 'ERC20: transfer from value not allowed');\n\n        _balances[_from] = _balances[_from] - _value;\n        _balances[_to] = _balances[_to] + _value;\n        _allowed[_from][msg.sender] = _allowed[_from][msg.sender] - _value;\n        \n        emit Transfer(_from, _to, _value);\n        \n        return true;\n   }\n\n    function allowance(\n        address _owner, \n        address _spender\n    ) public override view whenNotPaused returns (uint256) {\n        return _allowed[_owner][_spender];\n    }\n\n    function increaseApproval(\n        address _spender, \n        uint256 _addedValue\n    ) public whenNotPaused returns (bool) {\n        _allowed[msg.sender][_spender] = _allowed[msg.sender][_spender] + _addedValue;\n\n        emit Approval(msg.sender, _spender, _allowed[msg.sender][_spender]);\n        \n        return true;\n    }\n\n    function decreaseApproval(\n        address _spender, \n        uint256 _subtractedValue\n    ) public whenNotPaused returns (bool) {\n        uint256 oldValue = _allowed[msg.sender][_spender];\n        \n        if (_subtractedValue > oldValue) {\n            _allowed[msg.sender][_spender] = 0;\n        } else {\n            _allowed[msg.sender][_spender] = oldValue - _subtractedValue;\n        }\n        \n        emit Approval(msg.sender, _spender, _allowed[msg.sender][_spender]);\n        \n        return true;\n   }\n\n    function mintTo(\n        address _to,\n        uint256 _amount\n    ) public whenNotPaused onlyOwner returns (bool) {\n        require(_to != address(0), 'ERC20: to address is not valid');\n\n        _balances[_to] = _balances[_to] + _amount;\n        totalSupply = totalSupply + _amount;\n\n        emit Transfer(address(0), _to, _amount);\n\n        return true;\n    }\n\n    function burn(\n        uint256 _amount\n    ) public whenNotPaused returns (bool) {\n        require(_balances[msg.sender] >= _amount, 'ERC20: insufficient balance');\n\n        _balances[msg.sender] = _balances[msg.sender] - _amount;\n        totalSupply = totalSupply - _amount;\n\n        emit Transfer(msg.sender, address(0), _amount);\n\n        return true;\n    }\n\n    function burnFrom(\n        address _from,\n        uint256 _amount\n    ) public whenNotPaused returns (bool) {\n        require(_from != address(0), 'ERC20: from address is not valid');\n        require(_balances[_from] >= _amount, 'ERC20: insufficient balance');\n        require(_amount <= _allowed[_from][msg.sender], 'ERC20: burn from value not allowed');\n        \n        _balances[_from] = _balances[_from] - _amount;\n        totalSupply = totalSupply - _amount;\n\n        emit Transfer(_from, address(0), _amount);\n\n        return true;\n    }\n\n}",
  "sourcePath": "/home/flavio/token-erc-20/contracts/ERC20.sol",
  "compiler": {
    "name": "solc",
    "version": "0.8.0+commit.c7dfd78e.Emscripten.clang"
  },
  "schemaVersion": "3.4.0",
  "updatedAt": "2022-06-26T13:32:58.116Z",
  "devdoc": {
    "kind": "dev",
    "methods": {},
    "version": 1
  },
  "userdoc": {
    "kind": "user",
    "methods": {},
    "version": 1
  }
}