{
  "contractName": "ERC20",
  "abi": [
    {
      "inputs": [
        {
          "internalType": "string",
          "name": "name",
          "type": "string"
        },
        {
          "internalType": "string",
          "name": "symbol",
          "type": "string"
        },
        {
          "internalType": "uint8",
          "name": "decimals",
          "type": "uint8"
        },
        {
          "internalType": "uint256",
          "name": "totalSupply",
          "type": "uint256"
        }
      ],
      "stateMutability": "nonpayable",
      "type": "constructor"
    },
    {
      "anonymous": false,
      "inputs": [
        {
          "indexed": true,
          "internalType": "address",
          "name": "owner",
          "type": "address"
        },
        {
          "indexed": true,
          "internalType": "address",
          "name": "spender",
          "type": "address"
        },
        {
          "indexed": false,
          "internalType": "uint256",
          "name": "value",
          "type": "uint256"
        }
      ],
      "name": "Approval",
      "type": "event"
    },
    {
      "anonymous": false,
      "inputs": [
        {
          "indexed": true,
          "internalType": "address",
          "name": "burner",
          "type": "address"
        },
        {
          "indexed": true,
          "internalType": "address",
          "name": "account",
          "type": "address"
        },
        {
          "indexed": false,
          "internalType": "uint256",
          "name": "amount",
          "type": "uint256"
        }
      ],
      "name": "Burn",
      "type": "event"
    },
    {
      "anonymous": false,
      "inputs": [
        {
          "indexed": true,
          "internalType": "address",
          "name": "minter",
          "type": "address"
        },
        {
          "indexed": true,
          "internalType": "address",
          "name": "account",
          "type": "address"
        },
        {
          "indexed": false,
          "internalType": "uint256",
          "name": "amount",
          "type": "uint256"
        }
      ],
      "name": "Mint",
      "type": "event"
    },
    {
      "anonymous": false,
      "inputs": [
        {
          "indexed": false,
          "internalType": "address",
          "name": "account",
          "type": "address"
        }
      ],
      "name": "Paused",
      "type": "event"
    },
    {
      "anonymous": false,
      "inputs": [
        {
          "indexed": true,
          "internalType": "address",
          "name": "from",
          "type": "address"
        },
        {
          "indexed": true,
          "internalType": "address",
          "name": "to",
          "type": "address"
        },
        {
          "indexed": false,
          "internalType": "uint256",
          "name": "value",
          "type": "uint256"
        }
      ],
      "name": "Transfer",
      "type": "event"
    },
    {
      "anonymous": false,
      "inputs": [
        {
          "indexed": false,
          "internalType": "address",
          "name": "account",
          "type": "address"
        }
      ],
      "name": "Unpaused",
      "type": "event"
    },
    {
      "inputs": [],
      "name": "isOwner",
      "outputs": [
        {
          "internalType": "bool",
          "name": "",
          "type": "bool"
        }
      ],
      "stateMutability": "view",
      "type": "function"
    },
    {
      "inputs": [],
      "name": "owner",
      "outputs": [
        {
          "internalType": "address",
          "name": "",
          "type": "address"
        }
      ],
      "stateMutability": "view",
      "type": "function"
    },
    {
      "inputs": [],
      "name": "pause",
      "outputs": [],
      "stateMutability": "nonpayable",
      "type": "function"
    },
    {
      "inputs": [],
      "name": "paused",
      "outputs": [
        {
          "internalType": "bool",
          "name": "",
          "type": "bool"
        }
      ],
      "stateMutability": "view",
      "type": "function"
    },
    {
      "inputs": [],
      "name": "unpause",
      "outputs": [],
      "stateMutability": "nonpayable",
      "type": "function"
    },
    {
      "inputs": [],
      "name": "name",
      "outputs": [
        {
          "internalType": "string",
          "name": "",
          "type": "string"
        }
      ],
      "stateMutability": "view",
      "type": "function"
    },
    {
      "inputs": [],
      "name": "symbol",
      "outputs": [
        {
          "internalType": "string",
          "name": "",
          "type": "string"
        }
      ],
      "stateMutability": "view",
      "type": "function"
    },
    {
      "inputs": [],
      "name": "decimals",
      "outputs": [
        {
          "internalType": "uint8",
          "name": "",
          "type": "uint8"
        }
      ],
      "stateMutability": "view",
      "type": "function"
    },
    {
      "inputs": [],
      "name": "totalSupply",
      "outputs": [
        {
          "internalType": "uint256",
          "name": "",
          "type": "uint256"
        }
      ],
      "stateMutability": "view",
      "type": "function"
    },
    {
      "inputs": [
        {
          "internalType": "address",
          "name": "_to",
          "type": "address"
        },
        {
          "internalType": "uint256",
          "name": "_value",
          "type": "uint256"
        }
      ],
      "name": "transfer",
      "outputs": [
        {
          "internalType": "bool",
          "name": "",
          "type": "bool"
        }
      ],
      "stateMutability": "nonpayable",
      "type": "function"
    },
    {
      "inputs": [
        {
          "internalType": "address",
          "name": "_owner",
          "type": "address"
        }
      ],
      "name": "balanceOf",
      "outputs": [
        {
          "internalType": "uint256",
          "name": "balance",
          "type": "uint256"
        }
      ],
      "stateMutability": "view",
      "type": "function"
    },
    {
      "inputs": [
        {
          "internalType": "address",
          "name": "_spender",
          "type": "address"
        },
        {
          "internalType": "uint256",
          "name": "_value",
          "type": "uint256"
        }
      ],
      "name": "approve",
      "outputs": [
        {
          "internalType": "bool",
          "name": "",
          "type": "bool"
        }
      ],
      "stateMutability": "nonpayable",
      "type": "function"
    },
    {
      "inputs": [
        {
          "internalType": "address",
          "name": "_from",
          "type": "address"
        },
        {
          "internalType": "address",
          "name": "_to",
          "type": "address"
        },
        {
          "internalType": "uint256",
          "name": "_value",
          "type": "uint256"
        }
      ],
      "name": "transferFrom",
      "outputs": [
        {
          "internalType": "bool",
          "name": "",
          "type": "bool"
        }
      ],
      "stateMutability": "nonpayable",
      "type": "function"
    },
    {
      "inputs": [
        {
          "internalType": "address",
          "name": "_owner",
          "type": "address"
        },
        {
          "internalType": "address",
          "name": "_spender",
          "type": "address"
        }
      ],
      "name": "allowance",
      "outputs": [
        {
          "internalType": "uint256",
          "name": "",
          "type": "uint256"
        }
      ],
      "stateMutability": "view",
      "type": "function"
    },
    {
      "inputs": [
        {
          "internalType": "address",
          "name": "_spender",
          "type": "address"
        },
        {
          "internalType": "uint256",
          "name": "_addedValue",
          "type": "uint256"
        }
      ],
      "name": "increaseApproval",
      "outputs": [
        {
          "internalType": "bool",
          "name": "",
          "type": "bool"
        }
      ],
      "stateMutability": "nonpayable",
      "type": "function"
    },
    {
      "inputs": [
        {
          "internalType": "address",
          "name": "_spender",
          "type": "address"
        },
        {
          "internalType": "uint256",
          "name": "_subtractedValue",
          "type": "uint256"
        }
      ],
      "name": "decreaseApproval",
      "outputs": [
        {
          "internalType": "bool",
          "name": "",
          "type": "bool"
        }
      ],
      "stateMutability": "nonpayable",
      "type": "function"
    },
    {
      "inputs": [
        {
          "internalType": "address",
          "name": "_to",
          "type": "address"
        },
        {
          "internalType": "uint256",
          "name": "_amount",
          "type": "uint256"
        }
      ],
      "name": "mintTo",
      "outputs": [],
      "stateMutability": "nonpayable",
      "type": "function"
    },
    {
      "inputs": [
        {
          "internalType": "address",
          "name": "_from",
          "type": "address"
        },
        {
          "internalType": "uint256",
          "name": "_amount",
          "type": "uint256"
        }
      ],
      "name": "burnFrom",
      "outputs": [],
      "stateMutability": "nonpayable",
      "type": "function"
    }
  ],
  "bytecode": "0x60806040523480156200001157600080fd5b50604051620015f9380380620015f9833981810160405260808110156200003757600080fd5b81019080805160405193929190846401000000008211156200005857600080fd5b9083019060208201858111156200006e57600080fd5b82516401000000008111828201881017156200008957600080fd5b82525081516020918201929091019080838360005b83811015620000b85781810151838201526020016200009e565b50505050905090810190601f168015620000e65780820380516001836020036101000a031916815260200191505b50604052602001805160405193929190846401000000008211156200010a57600080fd5b9083019060208201858111156200012057600080fd5b82516401000000008111828201881017156200013b57600080fd5b82525081516020918201929091019080838360005b838110156200016a57818101518382015260200162000150565b50505050905090810190601f168015620001985780820380516001836020036101000a031916815260200191505b5060409081526020828101519290910151600080546001600160a01b0319163317905585519294509250620001d3916002918601906200021d565b508351620001e99060019060208701906200021d565b506003805460ff191660ff939093169290921790915560048190553360009081526005602052604090205550620002c29050565b828054600181600116156101000203166002900490600052602060002090601f016020900481019282601f106200026057805160ff191683800117855562000290565b8280016001018555821562000290579182015b828111156200029057825182559160200191906001019062000273565b506200029e929150620002a2565b5090565b620002bf91905b808211156200029e5760008155600101620002a9565b90565b61132780620002d26000396000f3fe608060405234801561001057600080fd5b50600436106101165760003560e01c806370a08231116100a25780638f32d59b116100715780638f32d59b1461032e57806395d89b4114610336578063a9059cbb1461033e578063d73dd6231461036a578063dd62ed3e1461039657610116565b806370a08231146102b057806379cc6790146102d65780638456cb59146103025780638da5cb5b1461030a57610116565b8063313ce567116100e9578063313ce567146102285780633f4ba83a14610246578063449a52f8146102505780635c975abb1461027c578063661884631461028457610116565b806306fdde031461011b578063095ea7b31461019857806318160ddd146101d857806323b872dd146101f2575b600080fd5b6101236103c4565b6040805160208082528351818301528351919283929083019185019080838360005b8381101561015d578181015183820152602001610145565b50505050905090810190601f16801561018a5780820380516001836020036101000a031916815260200191505b509250505060405180910390f35b6101c4600480360360408110156101ae57600080fd5b506001600160a01b038135169060200135610459565b604080519115158252519081900360200190f35b6101e0610513565b60408051918252519081900360200190f35b6101c46004803603606081101561020857600080fd5b506001600160a01b03813581169160208101359091169060400135610519565b610230610802565b6040805160ff9092168252519081900360200190f35b61024e61080b565b005b61024e6004803603604081101561026657600080fd5b506001600160a01b0381351690602001356108e9565b6101c4610aca565b6101c46004803603604081101561029a57600080fd5b506001600160a01b038135169060200135610ada565b6101e0600480360360208110156102c657600080fd5b50356001600160a01b0316610c17565b61024e600480360360408110156102ec57600080fd5b506001600160a01b038135169060200135610c32565b61024e610e2f565b610312610f10565b604080516001600160a01b039092168252519081900360200190f35b6101c4610f1f565b610123610f30565b6101c46004803603604081101561035457600080fd5b506001600160a01b038135169060200135610f8e565b6101c46004803603604081101561038057600080fd5b506001600160a01b038135169060200135611144565b6101e0600480360360408110156103ac57600080fd5b506001600160a01b038135811691602001351661122a565b60018054604080516020601f6002600019610100878916150201909516949094049384018190048102820181019092528281526060939092909183018282801561044f5780601f106104245761010080835404028352916020019161044f565b820191906000526020600020905b81548152906001019060200180831161043257829003601f168201915b5050505050905090565b60008054600160a01b900460ff16156104ac576040805162461bcd60e51b815260206004820152601060248201526f14185d5cd8589b194e881c185d5cd95960821b604482015290519081900360640190fd5b3360008181526006602090815260408083206001600160a01b03881680855290835292819020869055805186815290519293927f8c5be1e5ebec7d5bd14f71427d1e84f3dd0314c0f7b2291e5b200ac8c7c3b925929181900390910190a350600192915050565b60045490565b60008054600160a01b900460ff161561056c576040805162461bcd60e51b815260206004820152601060248201526f14185d5cd8589b194e881c185d5cd95960821b604482015290519081900360640190fd5b6001600160a01b0384166105c7576040805162461bcd60e51b815260206004820181905260248201527f45524332303a2066726f6d2061646472657373206973206e6f742076616c6964604482015290519081900360640190fd5b6001600160a01b038316610622576040805162461bcd60e51b815260206004820152601e60248201527f45524332303a20746f2061646472657373206973206e6f742076616c69640000604482015290519081900360640190fd5b6001600160a01b03841660009081526005602052604090205482111561068f576040805162461bcd60e51b815260206004820152601b60248201527f45524332303a20696e73756666696369656e742062616c616e63650000000000604482015290519081900360640190fd5b6001600160a01b0384166000908152600660209081526040808320338452909152902054821115610707576040805162461bcd60e51b815260206004820152601760248201527f45524332303a2066726f6d206e6f7420616c6c6f776564000000000000000000604482015290519081900360640190fd5b6001600160a01b03841660009081526005602052604090205461072a90836112a9565b6001600160a01b03808616600090815260056020526040808220939093559085168152205461075990836112bb565b6001600160a01b03808516600090815260056020908152604080832094909455918716815260068252828120338252909152205461079790836112a9565b6001600160a01b03808616600081815260066020908152604080832033845282529182902094909455805186815290519287169391927fddf252ad1be2c89b69c2b068fc378daa952ba7f163c4a11628f55a4df523b3ef929181900390910190a35060019392505050565b60035460ff1690565b610813610f1f565b610852576040805162461bcd60e51b815260206004820181905260248201526000805160206112d2833981519152604482015290519081900360640190fd5b600054600160a01b900460ff166108a7576040805162461bcd60e51b815260206004820152601460248201527314185d5cd8589b194e881b9bdd081c185d5cd95960621b604482015290519081900360640190fd5b6000805460ff60a01b191690556040805133815290517f5db9ee0a495bf2e6ff9c91a7834c1ba4fdd244a5e8aa4e537bd38aeae4b073aa9181900360200190a1565b600054600160a01b900460ff161561093b576040805162461bcd60e51b815260206004820152601060248201526f14185d5cd8589b194e881c185d5cd95960821b604482015290519081900360640190fd5b610943610f1f565b610982576040805162461bcd60e51b815260206004820181905260248201526000805160206112d2833981519152604482015290519081900360640190fd5b6001600160a01b0382166109dd576040805162461bcd60e51b815260206004820152601e60248201527f45524332303a20746f2061646472657373206973206e6f742076616c69640000604482015290519081900360640190fd5b60008111610a32576040805162461bcd60e51b815260206004820152601a60248201527f45524332303a20616d6f756e74206973206e6f742076616c6964000000000000604482015290519081900360640190fd5b600454610a45908263ffffffff6112bb16565b6004556001600160a01b038216600090815260056020526040902054610a71908263ffffffff6112bb16565b6001600160a01b0383166000818152600560209081526040918290209390935580518481529051919233927fab8530f87dc9b59234c4623bf917212bb2536d647574c8e7e5da92c2ede0c9f89281900390910190a35050565b600054600160a01b900460ff1690565b60008054600160a01b900460ff1615610b2d576040805162461bcd60e51b815260206004820152601060248201526f14185d5cd8589b194e881c185d5cd95960821b604482015290519081900360640190fd5b3360009081526006602090815260408083206001600160a01b038716845290915290205480831115610b82573360009081526006602090815260408083206001600160a01b0388168452909152812055610bb1565b610b8c81846112a9565b3360009081526006602090815260408083206001600160a01b03891684529091529020555b3360008181526006602090815260408083206001600160a01b0389168085529083529281902054815190815290519293927f8c5be1e5ebec7d5bd14f71427d1e84f3dd0314c0f7b2291e5b200ac8c7c3b925929181900390910190a35060019392505050565b6001600160a01b031660009081526005602052604090205490565b600054600160a01b900460ff1615610c84576040805162461bcd60e51b815260206004820152601060248201526f14185d5cd8589b194e881c185d5cd95960821b604482015290519081900360640190fd5b610c8c610f1f565b610ccb576040805162461bcd60e51b815260206004820181905260248201526000805160206112d2833981519152604482015290519081900360640190fd5b6001600160a01b038216610d26576040805162461bcd60e51b815260206004820181905260248201527f45524332303a2066726f6d2061646472657373206973206e6f742076616c6964604482015290519081900360640190fd5b6001600160a01b038216600090815260056020526040902054811115610d93576040805162461bcd60e51b815260206004820152601b60248201527f45524332303a20696e73756666696369656e742062616c616e63650000000000604482015290519081900360640190fd5b6001600160a01b038216600090815260056020526040902054610dbc908263ffffffff6112a916565b6001600160a01b038316600090815260056020526040902055600454610de8908263ffffffff6112a916565b6004556040805182815290516001600160a01b0384169133917fbac40739b0d4ca32fa2d82fc91630465ba3eddd1598da6fca393b26fb63b94539181900360200190a35050565b610e37610f1f565b610e76576040805162461bcd60e51b815260206004820181905260248201526000805160206112d2833981519152604482015290519081900360640190fd5b600054600160a01b900460ff1615610ec8576040805162461bcd60e51b815260206004820152601060248201526f14185d5cd8589b194e881c185d5cd95960821b604482015290519081900360640190fd5b6000805460ff60a01b1916600160a01b1790556040805133815290517f62e78cea01bee320cd4e420270b5ea74000d11b0c9f74754ebdbfc544b05a2589181900360200190a1565b6000546001600160a01b031690565b6000546001600160a01b0316331490565b60028054604080516020601f600019610100600187161502019094168590049384018190048102820181019092528281526060939092909183018282801561044f5780601f106104245761010080835404028352916020019161044f565b60008054600160a01b900460ff1615610fe1576040805162461bcd60e51b815260206004820152601060248201526f14185d5cd8589b194e881c185d5cd95960821b604482015290519081900360640190fd5b6001600160a01b03831661103c576040805162461bcd60e51b815260206004820152601e60248201527f45524332303a20746f2061646472657373206973206e6f742076616c69640000604482015290519081900360640190fd5b336000908152600560205260409020548211156110a0576040805162461bcd60e51b815260206004820152601b60248201527f45524332303a20696e73756666696369656e742062616c616e63650000000000604482015290519081900360640190fd5b336000908152600560205260409020546110ba90836112a9565b33600090815260056020526040808220929092556001600160a01b038516815220546110e690836112bb565b6001600160a01b0384166000818152600560209081526040918290209390935580518581529051919233927fddf252ad1be2c89b69c2b068fc378daa952ba7f163c4a11628f55a4df523b3ef9281900390910190a350600192915050565b60008054600160a01b900460ff1615611197576040805162461bcd60e51b815260206004820152601060248201526f14185d5cd8589b194e881c185d5cd95960821b604482015290519081900360640190fd5b3360009081526006602090815260408083206001600160a01b03871684529091529020546111c590836112bb565b3360008181526006602090815260408083206001600160a01b0389168085529083529281902085905580519485525191937f8c5be1e5ebec7d5bd14f71427d1e84f3dd0314c0f7b2291e5b200ac8c7c3b925929081900390910190a350600192915050565b60008054600160a01b900460ff161561127d576040805162461bcd60e51b815260206004820152601060248201526f14185d5cd8589b194e881c185d5cd95960821b604482015290519081900360640190fd5b506001600160a01b03918216600090815260066020908152604080832093909416825291909152205490565b6000828211156112b557fe5b50900390565b6000828201838110156112ca57fe5b939250505056fe4f776e61626c653a2063616c6c6572206973206e6f7420746865206f776e6572a2646970667358221220335aefb6c91775d81af6d3d553cdd2771828879be254b00b7e8a903f7aabb00b64736f6c63430006080033",
  "immutableReferences": {},
  "source": "//SPDX-License-Identifier: UNLICENSED\n\npragma solidity ^0.6.8;\n\nimport './interfaces/IERC20.sol';\nimport './libraries/SafeMath.sol';\nimport \"./ownership/Ownable.sol\";\nimport \"./lifecycle/Pausable.sol\";\n\ncontract ERC20 is IERC20, Ownable, Pausable {\n\n    using SafeMath for uint;\n\n    string internal _name;\n    string internal _symbol;\n    uint8 internal _decimals;\n    uint256 internal _totalSupply;\n\n    mapping (address => uint256) internal _balances;\n    mapping (address => mapping (address => uint256)) internal _allowed;\n\n    event Mint(address indexed minter, address indexed account, uint256 amount);\n    event Burn(address indexed burner, address indexed account, uint256 amount);\n\n    constructor (\n        string memory name, \n        string memory symbol, \n        uint8 decimals, \n        uint256 totalSupply\n    ) public\n    {\n        _symbol = symbol;\n        _name = name;\n        _decimals = decimals;\n        _totalSupply = totalSupply;\n        _balances[msg.sender] = totalSupply;\n    }\n\n    function name(\n    ) public view returns (string memory)\n    {\n        return _name;\n    }\n\n    function symbol(\n    ) public view returns (string memory)\n    {\n        return _symbol;\n    }\n\n    function decimals(\n    ) public view returns (uint8)\n    {\n        return _decimals;\n    }\n\n    function totalSupply(\n    ) public view returns (uint256)\n    {\n        return _totalSupply;\n    }\n\n    function transfer(\n        address _to, \n        uint256 _value\n    ) public override\n        whenNotPaused \n      returns (bool)\n    {\n        require(_to != address(0), 'ERC20: to address is not valid');\n        require(_value <= _balances[msg.sender], 'ERC20: insufficient balance');\n        \n        _balances[msg.sender] = SafeMath.sub(_balances[msg.sender], _value);\n        _balances[_to] = SafeMath.add(_balances[_to], _value);\n        \n        emit Transfer(msg.sender, _to, _value);\n        \n        return true;\n    }\n\n   function balanceOf(\n       address _owner\n    ) public override view returns (uint256 balance) \n    {\n        return _balances[_owner];\n    }\n\n    function approve(\n       address _spender, \n       uint256 _value\n    ) public override\n        whenNotPaused\n      returns (bool) \n    {\n        _allowed[msg.sender][_spender] = _value;\n        \n        emit Approval(msg.sender, _spender, _value);\n        \n        return true;\n   }\n\n   function transferFrom(\n        address _from, \n        address _to, \n        uint256 _value\n    ) public override\n        whenNotPaused\n      returns (bool) \n    {\n        require(_from != address(0), 'ERC20: from address is not valid');\n        require(_to != address(0), 'ERC20: to address is not valid');\n        require(_value <= _balances[_from], 'ERC20: insufficient balance');\n        require(_value <= _allowed[_from][msg.sender], 'ERC20: from not allowed');\n\n        _balances[_from] = SafeMath.sub(_balances[_from], _value);\n        _balances[_to] = SafeMath.add(_balances[_to], _value);\n        _allowed[_from][msg.sender] = SafeMath.sub(_allowed[_from][msg.sender], _value);\n        \n        emit Transfer(_from, _to, _value);\n        \n        return true;\n   }\n\n    function allowance(\n        address _owner, \n        address _spender\n    ) public override view \n        whenNotPaused\n      returns (uint256) \n    {\n        return _allowed[_owner][_spender];\n    }\n\n    function increaseApproval(\n        address _spender, \n        uint _addedValue\n    ) public\n        whenNotPaused\n      returns (bool)\n    {\n        _allowed[msg.sender][_spender] = SafeMath.add(_allowed[msg.sender][_spender], _addedValue);\n        \n        emit Approval(msg.sender, _spender, _allowed[msg.sender][_spender]);\n        \n        return true;\n    }\n\n    function decreaseApproval(\n        address _spender, \n        uint _subtractedValue\n    ) public\n        whenNotPaused\n      returns (bool) \n    {\n        uint oldValue = _allowed[msg.sender][_spender];\n        \n        if (_subtractedValue > oldValue) {\n            _allowed[msg.sender][_spender] = 0;\n        } else {\n            _allowed[msg.sender][_spender] = SafeMath.sub(oldValue, _subtractedValue);\n        }\n        \n        emit Approval(msg.sender, _spender, _allowed[msg.sender][_spender]);\n        \n        return true;\n   }\n\n    function mintTo(\n        address _to,\n        uint _amount\n    ) public\n        whenNotPaused\n        onlyOwner\n    {\n        require(_to != address(0), 'ERC20: to address is not valid');\n        require(_amount > 0, 'ERC20: amount is not valid');\n\n        _totalSupply = _totalSupply.add(_amount);\n        _balances[_to] = _balances[_to].add(_amount);\n\n        emit Mint(msg.sender, _to, _amount);\n    }\n\n    function burnFrom(\n        address _from,\n        uint _amount\n    ) public\n        whenNotPaused\n        onlyOwner\n    {\n        require(_from != address(0), 'ERC20: from address is not valid');\n        require(_balances[_from] >= _amount, 'ERC20: insufficient balance');\n        \n        _balances[_from] = _balances[_from].sub(_amount);\n        _totalSupply = _totalSupply.sub(_amount);\n\n        emit Burn(msg.sender, _from, _amount);\n    }\n\n}",
  "sourcePath": "/Users/flavioneto/erc-20/contracts/ERC20.sol",
  "compiler": {
    "name": "solc",
    "version": "0.6.8+commit.0bbfe453.Emscripten.clang"
  },
  "schemaVersion": "3.1.0",
  "updatedAt": "2020-05-31T07:42:15.394Z",
  "devdoc": {
    "methods": {}
  },
  "userdoc": {
    "methods": {}
  }
}