{
  "contractName": "Ownable",
  "abi": [
    {
      "inputs": [],
      "stateMutability": "nonpayable",
      "type": "constructor"
    },
    {
      "anonymous": false,
      "inputs": [
        {
          "indexed": false,
          "internalType": "address",
          "name": "oldOwner",
          "type": "address"
        },
        {
          "indexed": false,
          "internalType": "address",
          "name": "newOwner",
          "type": "address"
        }
      ],
      "name": "NewOwner",
      "type": "event"
    },
    {
      "inputs": [],
      "name": "owner",
      "outputs": [
        {
          "internalType": "address",
          "name": "",
          "type": "address"
        }
      ],
      "stateMutability": "view",
      "type": "function"
    },
    {
      "inputs": [],
      "name": "isOwner",
      "outputs": [
        {
          "internalType": "bool",
          "name": "",
          "type": "bool"
        }
      ],
      "stateMutability": "view",
      "type": "function"
    },
    {
      "inputs": [
        {
          "internalType": "address",
          "name": "_newOwner",
          "type": "address"
        }
      ],
      "name": "transferOwnership",
      "outputs": [],
      "stateMutability": "nonpayable",
      "type": "function"
    }
  ],
  "bytecode": "0x608060405234801561001057600080fd5b50600080546001600160a01b03191633179055610205806100326000396000f3fe608060405234801561001057600080fd5b50600436106100415760003560e01c80638da5cb5b146100465780638f32d59b14610064578063f2fde38b14610079575b600080fd5b61004e61008e565b60405161005b9190610161565b60405180910390f35b61006c61009d565b60405161005b919061018f565b61008c610087366004610133565b6100ae565b005b6000546001600160a01b031690565b6000546001600160a01b0316331490565b6100b661009d565b6100db5760405162461bcd60e51b81526004016100d29061019a565b60405180910390fd5b600080546001600160a01b0319166001600160a01b0383161790556040517f70aea8d848e8a90fb7661b227dc522eb6395c3dac71b63cb59edd5c9899b2364906101289033908490610175565b60405180910390a150565b600060208284031215610144578081fd5b81356001600160a01b038116811461015a578182fd5b9392505050565b6001600160a01b0391909116815260200190565b6001600160a01b0392831681529116602082015260400190565b901515815260200190565b6020808252818101527f4f776e61626c653a2063616c6c6572206973206e6f7420746865206f776e657260408201526060019056fea264697066735822122068acac08075cd00badf2f3151fe4db28de383d45bf3642d7f0760432b64e848664736f6c63430008000033",
  "immutableReferences": {},
  "source": "//SPDX-License-Identifier: UNLICENSED\n\npragma solidity ^0.8.0;\n\ncontract Ownable {\n\n  address private _owner;\n\n  event NewOwner(address oldOwner, address newOwner);\n\n  constructor() {\n    _owner = msg.sender;\n  }\n\n  modifier onlyOwner() {\n    require(isOwner(), \"Ownable: caller is not the owner\");\n    _;\n  }\n\n  function owner() public view returns (address) {\n    return _owner;\n  }\n\n  function isOwner() public view returns (bool) {\n    return msg.sender == _owner;\n  }\n\n  function transferOwnership(address _newOwner) public onlyOwner {\n    _owner = _newOwner;\n    emit NewOwner(msg.sender, _newOwner);\n  } \n}",
  "sourcePath": "/home/flavio/token-erc-20/contracts/ownership/Ownable.sol",
  "compiler": {
    "name": "solc",
    "version": "0.8.0+commit.c7dfd78e.Emscripten.clang"
  },
  "schemaVersion": "3.4.0",
  "updatedAt": "2022-06-24T21:31:41.483Z",
  "devdoc": {
    "kind": "dev",
    "methods": {},
    "version": 1
  },
  "userdoc": {
    "kind": "user",
    "methods": {},
    "version": 1
  }
}