{
  "contractName": "Ownable",
  "abi": [
    {
      "inputs": [],
      "stateMutability": "nonpayable",
      "type": "constructor"
    },
    {
      "inputs": [],
      "name": "owner",
      "outputs": [
        {
          "internalType": "address",
          "name": "",
          "type": "address"
        }
      ],
      "stateMutability": "view",
      "type": "function"
    },
    {
      "inputs": [],
      "name": "isOwner",
      "outputs": [
        {
          "internalType": "bool",
          "name": "",
          "type": "bool"
        }
      ],
      "stateMutability": "view",
      "type": "function"
    }
  ],
  "bytecode": "0x608060405234801561001057600080fd5b50600080546001600160a01b0319163317905560c9806100316000396000f3fe6080604052348015600f57600080fd5b506004361060325760003560e01c80638da5cb5b1460375780638f32d59b146059575b600080fd5b603d6073565b604080516001600160a01b039092168252519081900360200190f35b605f6082565b604080519115158252519081900360200190f35b6000546001600160a01b031690565b6000546001600160a01b031633149056fea26469706673582212201e4070b501d9c4b4dc9a1964353453f4a4f0ec71ce189f6ae770d49085df7de364736f6c63430006080033",
  "immutableReferences": {},
  "source": "//SPDX-License-Identifier: UNLICENSED\n\npragma solidity ^0.6.8;\n\ncontract Ownable {\n  address private _owner;\n\n  constructor() public {\n    _owner = msg.sender;\n  }\n\n  modifier onlyOwner() {\n    require(isOwner(), \"Ownable: caller is not the owner\");\n    _;\n  }\n\n  function owner(\n  ) public view returns (address) {\n    return _owner;\n  }\n\n  function isOwner(\n  ) public view returns (bool) {\n    return msg.sender == _owner;\n  }\n}",
  "sourcePath": "/Users/flavioneto/erc-20/contracts/ownership/Ownable.sol",
  "compiler": {
    "name": "solc",
    "version": "0.6.8+commit.0bbfe453.Emscripten.clang"
  },
  "schemaVersion": "3.1.0",
  "updatedAt": "2020-05-31T07:42:15.406Z",
  "devdoc": {
    "methods": {}
  },
  "userdoc": {
    "methods": {}
  }
}